:100000000C9434000C9440000C945D000C943E0061
:100010000C943E000C943E000C943E000C943E0068
:100020000C943E000C943E000C943E000C943E0058
:100030000C943E000C943E000C943E000C943E0048
:100040000C943E000C943E000C943E000C943E0038
:100050000C943E000C943E000C943E000C943E0028
:100060000C943E000C943E0011241FBECFEFD8E04C
:10007000DEBFCDBF0E947A000C949B000C94000060
:100080001F920F920FB60F9211242F938F939F936D
:1000900085B1880F85B928982FEF87EA91E621501E
:1000A00080409040E1F700C000009F918F912F9118
:1000B0000F900FBE0F901F9018951F920F920FB6C2
:1000C0000F9211242F938F939F9385B1880F85B939
:1000D000289A2FEF87EA91E6215080409040E1F77F
:1000E00000C000009F918F912F910F900FBE0F9035
:1000F0001F9018958FEF84B915B884B18B7F8AB99A
:1001000084B1877F8AB98091690082608093690099
:10011000809169008E7F809369008091690088607A
:1001200080936900809169008B7F80936900789447
:0A013000E89AE99AFFCFF894FFCF98
:00000001FF
