:100000000C9434000C944B000C9449000C9449005F
:100010000C9449000C9449000C9449000C9449003C
:100020000C9449000C9449000C9449000C9449002C
:100030000C9449000C9449000C9449000C9449001C
:100040000C9449000C9449000C9449000C9449000C
:100050000C9449000C9449000C9449000C944900FC
:100060000C9449000C94490011241FBECFEFD8E036
:10007000DEBFCDBF11E0A0E0B1E0EEE1F1E002C0F3
:1000800005900D92A230B107D9F70E947D000C9423
:100090008D000C9400001F920F920FB60F92112446
:1000A0002F938F939F938091000190910101803451
:1000B000910534F081E090E090930101809300017C
:1000C0008091000185B98091000190910101019614
:1000D00090930101809300012FEF87EA91E6215070
:1000E00080409040E1F700C000009F918F912F91D8
:1000F0000F900FBE0F901F9018958FEF84B95298F4
:1001000080916900826080936900809169008E7F90
:0E011000809369007894E89AFFCFF894FFCFAF
:02011E000100DE
:00000001FF
