:100000000C9434000C943E000C943E000C943E0082
:100010000C943E000C943E000C943E000C943E0068
:100020000C943E000C943E000C943E000C943E0058
:100030000C943E000C943E000C943E000C943E0048
:100040000C943E000C943E000C943E000C943E0038
:100050000C943E000C943E000C943E000C943E0028
:100060000C943E000C943E0011241FBECFEFD8E04C
:10007000DEBFCDBF0E9440000C9455000C940000E0
:100080008FEF84B9579881E04F9BFECF8D3F08F0EA
:1000900081E085B92FEF33ED90E32150304090405F
:0E00A000E1F700C000008F5FEFCFF894FFCFB4
:00000001FF
