:100000000C9434000C9440000C943E000C943E0080
:100010000C943E000C943E000C943E000C943E0068
:100020000C943E000C943E000C943E000C943E0058
:100030000C943E000C943E000C943E000C943E0048
:100040000C943E000C943E000C943E000C943E0038
:100050000C943E000C943E000C943E000C943E0028
:100060000C943E000C943E0011241FBECFEFD8E04C
:10007000DEBFCDBF0E945D000C946C000C940000AC
:100080001F920F920FB60F9211242F938F939F936D
:1000900095B181E0892785B92FEF89E698E1215054
:1000A00080409040E1F700C000009F918F912F9118
:1000B0000F900FBE0F901F901895209A5298809124
:1000C0006900826080936900809169008E7F8093CF
:0C00D00069007894E89AFFCFF894FFCF05
:00000001FF
